{
  "contractName": "Election",
  "abi": [
    {
      "inputs": [],
      "payable": false,
      "stateMutability": "nonpayable",
      "type": "constructor"
    },
    {
      "anonymous": false,
      "inputs": [
        {
          "indexed": false,
          "internalType": "uint256",
          "name": "candidateId",
          "type": "uint256"
        }
      ],
      "name": "VoteEvent",
      "type": "event"
    },
    {
      "constant": true,
      "inputs": [],
      "name": "get_candidate",
      "outputs": [
        {
          "internalType": "uint256",
          "name": "",
          "type": "uint256"
        }
      ],
      "payable": false,
      "stateMutability": "view",
      "type": "function"
    },
    {
      "constant": false,
      "inputs": [
        {
          "internalType": "uint256",
          "name": "_id",
          "type": "uint256"
        }
      ],
      "name": "vote",
      "outputs": [],
      "payable": false,
      "stateMutability": "nonpayable",
      "type": "function"
    }
  ],
  "bytecode": "0x6080604052600060025534801561001557600080fd5b5061005a6040518060400160405280600781526020017f43616e64303031000000000000000000000000000000000000000000000000008152506101b360201b60201c565b61009e6040518060400160405280600781526020017f43616e64303032000000000000000000000000000000000000000000000000008152506101b360201b60201c565b6100e26040518060400160405280600781526020017f43616e64303033000000000000000000000000000000000000000000000000008152506101b360201b60201c565b6101266040518060400160405280600781526020017f43616e64303034000000000000000000000000000000000000000000000000008152506101b360201b60201c565b61016a6040518060400160405280600781526020017f43616e64303035000000000000000000000000000000000000000000000000008152506101b360201b60201c565b6101ae6040518060400160405280600781526020017f43616e64303036000000000000000000000000000000000000000000000000008152506101b360201b60201c565b6102cd565b6001600254016002819055506040518060600160405280600254815260200182815260200160008152506000806002548152602001908152602001600020600082015181600001556020820151816001019080519060200190610217929190610228565b506040820151816002015590505050565b828054600181600116156101000203166002900490600052602060002090601f016020900481019282601f1061026957805160ff1916838001178555610297565b82800160010185558215610297579182015b8281111561029657825182559160200191906001019061027b565b5b5090506102a491906102a8565b5090565b6102ca91905b808211156102c65760008160009055506001016102ae565b5090565b90565b6102c0806102dc6000396000f3fe608060405234801561001057600080fd5b50600436106100365760003560e01c80630121b93f1461003b5780636976fe9514610069575b600080fd5b6100676004803603602081101561005157600080fd5b8101908080359060200190929190505050610087565b005b610071610281565b6040518082815260200191505060405180910390f35b600160003373ffffffffffffffffffffffffffffffffffffffff1673ffffffffffffffffffffffffffffffffffffffff16815260200190815260200160002060009054906101000a900460ff1615610147576040517f08c379a00000000000000000000000000000000000000000000000000000000081526004018080602001828103825260198152602001807f566f7465722063617374656420566f7465206561726c6965720000000000000081525060200191505060405180910390fd5b60008111801561015957506002548111155b6101cb576040517f08c379a000000000000000000000000000000000000000000000000000000000815260040180806020018281038252600f8152602001807f56616c69642043616e646964617465000000000000000000000000000000000081525060200191505060405180910390fd5b60018060003373ffffffffffffffffffffffffffffffffffffffff1673ffffffffffffffffffffffffffffffffffffffff16815260200190815260200160002060006101000a81548160ff021916908315150217905550600080828152602001908152602001600020600201600081548092919060010191905055507fc00232df16a35660dbcdde113a8565e8848dc6202169f47b8f35e8c2511d40bc816040518082815260200191505060405180910390a150565b600060025490509056fea265627a7a72315820496bf2050839f16a03afdfc5a489e7372b9900f5a9a8e6e395175fa64b969bc364736f6c63430005100032",
  "source": "pragma solidity >=0.4.22 <0.7.0;\n\n//import \"./2_Owner.sol\";\n\ncontract Election\n{\n    struct Candidate\n    {\n        uint candidateId;\n        string candidateName;\n        uint voteCount;\n    }\n\n    //mapping(Key=>value) <mapping name>\n    //mapping(datatype of cand_id => candidate_struct) <name>\n    mapping(uint => Candidate) candidates;\n\n    //store voters\n    mapping(address => bool) voters;\n\n    //no_ofcandiadates\n    uint candidateCount = 0;\n\n    event VoteEvent(uint candidateId);\n\n    constructor () public\n    {\n        add_candidate('Cand001');\n\t\tadd_candidate('Cand002');\n        add_candidate('Cand003');\n\t\tadd_candidate('Cand004');\n\t\tadd_candidate('Cand005');\n\t\tadd_candidate('Cand006');\n    }\n\n    function add_candidate(string memory _candidateName) private\n    {\n        candidateCount = candidateCount+1;\n        candidates[candidateCount] = Candidate(candidateCount, _candidateName, 0);\n\n    }\n\n    function get_candidate() view public returns(uint)\n    {\n       return candidateCount;\n    }\n\n    function vote(uint _id) public\n    {\n        //require voter has not voted before\n        require (!voters[msg.sender],'Voter casted Vote earlier');\n        //require a valid candidate\n        require(_id > 0 && _id<= candidateCount, 'Valid Candidate');\n        //record voter had voted\n        voters[msg.sender] = true;\n        //update candiadate vote count\n        candidates[_id].voteCount++;\n        //trigger voted event\n        emit VoteEvent(_id);\n    }\n}\n",
  "sourcePath": "/home/pawan/Desktop/emurgo/myrepository/Projects/voting/contracts/voting.sol",
  "compiler": {
    "name": "solc",
    "version": "0.5.16+commit.9c3226ce.Emscripten.clang"
  },
  "schemaVersion": "3.0.23",
  "updatedAt": "2020-04-11T06:10:15.650Z",
  "devdoc": {
    "methods": {}
  },
  "userdoc": {
    "methods": {}
  }
}